:100000000C9434000C9440000C943E000C943E0080
:100010000C943E000C943E000C943E000C943E0068
:100020000C943E000C943E000C943E000C94760020
:100030000C943E000C943E000C943E000C943E0048
:100040000C943E000C943E000C943E000C943E0038
:100050000C943E000C943E000C943E000C943E0028
:100060000C943E000C943E0011241FBECFEFD8E04C
:10007000DEBFCDBF0E94A7000C94F2000C940000DC
:100080001F920F9200905F000F9211242F933F93C5
:100090008F939F93EF93FF93CF93DF93CDB7DEB70B
:1000A00084E890E0FC011182108285E290E025E274
:1000B00030E0F90120812160FC0120838FE690E08F
:1000C0002FE630E0F90120812260FC01208300004E
:1000D000DF91CF91FF91EF919F918F913F912F9160
:1000E0000F9000925F000F901F9018951F920F9233
:1000F00000905F000F9211242F933F938F939F9353
:10010000EF93FF93CF93DF93CDB7DEB785E290E017
:1001100025E230E0F90120812E7FFC0120838FE66B
:1001200090E02FE630E0F90120812D7FFC01208353
:100130000000DF91CF91FF91EF919F918F913F91BF
:100140002F910F9000925F000F901F901895CF9302
:10015000DF93CDB7DEB70E94B9000E94D20084E2DF
:1001600090E024E230E0F90120812062FC0120834C
:10017000FFCFCF93DF93CDB7DEB784E290E021E0ED
:10018000FC01208385E290E0FC0110828AE290E08D
:10019000FC0110828BE290E0FC0110820000DF91F4
:1001A000CF910895CF93DF93CDB7DEB7F89489E66A
:1001B00090E023E0FC0120838DE390E021E0FC014E
:1001C000208381E890E02DE0FC01208388E890E026
:1001D00021E13AE7FC013183208378940000DF912C
:0801E000CF910895F894FFCFC0
:00000001FF
