:100000000C9434000C9451000C9451000C94510049
:100010000C9451000C9451000C9451000C9451001C
:100020000C9451000C9451000C9451000C9451000C
:100030000C9451000C9451000C9451000C945100FC
:100040000C9451000C9451000C9404010C94510038
:100050000C9451000C9451000C9451000C945100DC
:100060000C9451000C94510011241FBECFEFD8E026
:10007000DEBFCDBF11E0A0E0B1E0ECE5F5E002C0ED
:1000800005900D92AA30B107D9F721E0AAE0B1E0BE
:1000900001C01D92A631B207E1F70E9491000C94B5
:1000A000AC020C940000CF93DF93FC01208122234B
:1000B00069F0DC011196E0ECF0E0C6ECD0E0908154
:1000C00095FFFDCF28832D912111F9CFDF91CF919D
:1000D00008950F931F93CF93DF9300D0CDB7DEB772
:1000E0008C014AE050E0BE016F5F7F4F0E94280103
:1000F00029813A810217130741F06F3F710509F01A
:1001000038F467BD81E090E005C080E090E002C077
:1001100080E090E00F900F90DF91CF911F910F91B1
:100120000895CF93DF93CDB7DEB7C054D1090FB692
:10013000F894DEBF0FBECDBFF8941092C50089E1E0
:100140008093C400E1ECF0E080818861808380814D
:1001500080688083E2ECF0E0808186608083789420
:100160008FEF87BD84B5806884BD84B5816084BD10
:1001700085B5826085BD8AB1806C8AB990E010E057
:1001800001E00F2EF0E0CF2EF1E0DF2EF02D0F2E4C
:10019000F5E0EF2EF1E0FF2EF02D80910A01181707
:1001A000E9F0E12FF0E0E55FFE4F8081882399F0D0
:1001B000E1E0F0E0EC0FFD1FE90FF11D80839F5F90
:1001C0008D3049F400931301E1E0F0E0EC0FFD1FE6
:1001D000E90FF11D10821F5F177001C0182F809169
:1001E00013018823D1F2CE0101960E946900892B68
:1001F00019F48E2D9F2D02C08C2D9D2D0E94530031
:100200001092130190E0C9CF1F920F920FB60F9278
:1002100011248F93EF93FF93E0910A0181E08E0FF9
:1002200080930A018091C600F0E0E55FFE4F808375
:1002300080910A01877080930A018BB180588BB935
:10024000FF91EF918F910F900FBE0F901F90189517
:10025000A0E0B0E0EEE2F1E00C9467025C016B011B
:100260007A016115710519F0FB0191838083E11416
:10027000F10429F0C7010297839708F0C9C0E5018E
:100280002196F5011081812F90E00E941D02892B9B
:1002900011F05E01F4CF1D3229F42196F501118190
:1002A00001E007C01B3221F4E5012296F50111811E
:1002B00000E0E114F104B1F0F0E1EF16F10429F4EB
:1002C000B0C010E3E114F10401F12AE0E216F104F8
:1002D000B1F180E1E816F10471F0E8E0EE16F10406
:1002E000F1F413C0103341F588818F7D883549F7CB
:1002F000198122960260F0E1EF2EF12C88248A9475
:10030000982CA82CAFE0BA2E20C078E0E72EF12C74
:1003100088248A94982CA82CEFE1BE2E16C06FEF8B
:100320007FEFCB0197010F2C000C440B550B0E9463
:10033000390249015A0109C08AE0E82EF12C69E925
:10034000862E982CA82C69E1B62E40E060E070E083
:10035000CB0127010F2C000C66087708FE0150ED39
:10036000352E310E29E0231570F42FEB210F2A31A1
:1003700018F439EC332E06C02FE9210F2A3130F55D
:1003800029EA322E310E232D30E02E153F05F4F4EC
:100390004F3FC9F086169706A806B90688F0A30154
:1003A00092010E942902232D30E040E050E0620FCC
:1003B000731F841F951F621773078407950710F436
:1003C0004FEF01C041E021961081C8CFC114D10484
:1003D00051F0442311F0219703C001FF04C022977C
:1003E000F601D183C08300FF07C09095809570957A
:1003F00061957F4F8F4F9F4F4F3F79F482E290E09E
:1004000090931501809314013FEF2FEF9FEF0DC0E4
:1004100040E030E020E090E008C0462F372F282F42
:1004200004C0103309F067CF5FCF642F732F822F82
:10043000CDB7DEB7E1E10C94830291110C94260252
:10044000803219F089508550C8F708959927882778
:100450000895DB018F939F930E945B02BF91AF9140
:10046000A29F800D911DA39F900DB29F900D11240E
:100470000895A1E21A2EAA1BBB1BFD010DC0AA1FE5
:10048000BB1FEE1FFF1FA217B307E407F50720F0FD
:10049000A21BB30BE40BF50B661F771F881F991F78
:1004A0001A9469F760957095809590959B01AC01C1
:1004B000BD01CF0108950E949D02A59F900DB49F9C
:1004C000900DA49F800D911D112408952F923F92AD
:1004D0004F925F926F927F928F929F92AF92BF9254
:1004E000CF92DF92EF92FF920F931F93CF93DF9300
:1004F000CDB7DEB7CA1BDB0B0FB6F894DEBF0FBE5D
:10050000CDBF09942A88398848885F846E847D84A9
:100510008C849B84AA84B984C884DF80EE80FD80AB
:100520000C811B81AA81B981CE0FD11D0FB6F89421
:10053000DEBF0FBECDBFED010895A29FB001B39FF6
:10054000C001A39F700D811D1124911DB29F700DDC
:0C055000811D1124911D0895F894FFCF27
:0A055C004F4B0D0A0045520D0A0036
:00000001FF
