:100000000C9434000C9446000C9446000C9446006A
:100010000C9446000C9446000C9446000C94460048
:100020000C9446000C9446000C9446000C94460038
:100030000C9446000C9446000C9446000C94460028
:100040000C9446000C9446000C948F000C944600CF
:100050000C9446000C9446000C9446000C94460008
:100060000C9446000C94460011241FBECFEFD8E03C
:10007000DEBFCDBF21E0A0E0B1E001C01D92A23003
:10008000B207E1F70E946D000C94A8000C940000E8
:10009000E0ECF0E0908195FFFDCF8093C6000895DD
:1000A000833341F4429A81E30E9448008DE00E942C
:1000B000480010C0843341F4429880E30E94480015
:1000C0008DE00E94480006C085E40E9448008DE053
:1000D0000E944800109201010895F8941092C50002
:1000E00087E68093C400E1ECF0E080818861808342
:1000F000808180688083E2ECF0E08081866080838C
:10010000789487B1866087B9809100018823E1F3F4
:10011000809101010E94500010920001F5CF1F92C2
:100120000F920FB60F9211248F939F9398B182E094
:10013000892788B981E0809300018091C60080936F
:1001400001019F918F910F900FBE0F901F901895F6
:04015000F894FFCF51
:00000001FF
