
day_5.elf:     file format elf32-avr

Sections:
Idx Name          Size      VMA       LMA       File off  Algn
  0 .data         00000000  00800100  00800100  000000f4  2**0
                  CONTENTS, ALLOC, LOAD, DATA
  1 .text         000000a0  00000000  00000000  00000054  2**1
                  CONTENTS, ALLOC, LOAD, READONLY, CODE
  2 .comment      00000030  00000000  00000000  000000f4  2**0
                  CONTENTS, READONLY
  3 .note.gnu.avr.deviceinfo 00000040  00000000  00000000  00000124  2**2
                  CONTENTS, READONLY
  4 .debug_aranges 00000028  00000000  00000000  00000164  2**0
                  CONTENTS, READONLY, DEBUGGING
  5 .debug_info   00000693  00000000  00000000  0000018c  2**0
                  CONTENTS, READONLY, DEBUGGING
  6 .debug_abbrev 0000060d  00000000  00000000  0000081f  2**0
                  CONTENTS, READONLY, DEBUGGING
  7 .debug_line   000001a2  00000000  00000000  00000e2c  2**0
                  CONTENTS, READONLY, DEBUGGING
  8 .debug_frame  00000034  00000000  00000000  00000fd0  2**2
                  CONTENTS, READONLY, DEBUGGING
  9 .debug_str    00000385  00000000  00000000  00001004  2**0
                  CONTENTS, READONLY, DEBUGGING
 10 .debug_ranges 00000018  00000000  00000000  00001389  2**0
                  CONTENTS, READONLY, DEBUGGING

Disassembly of section .text:

00000000 <__vectors>:
   0:	0c 94 34 00 	jmp	0x68	; 0x68 <__ctors_end>
   4:	0c 94 3e 00 	jmp	0x7c	; 0x7c <__bad_interrupt>
   8:	0c 94 3e 00 	jmp	0x7c	; 0x7c <__bad_interrupt>
   c:	0c 94 3e 00 	jmp	0x7c	; 0x7c <__bad_interrupt>
  10:	0c 94 3e 00 	jmp	0x7c	; 0x7c <__bad_interrupt>
  14:	0c 94 3e 00 	jmp	0x7c	; 0x7c <__bad_interrupt>
  18:	0c 94 3e 00 	jmp	0x7c	; 0x7c <__bad_interrupt>
  1c:	0c 94 3e 00 	jmp	0x7c	; 0x7c <__bad_interrupt>
  20:	0c 94 3e 00 	jmp	0x7c	; 0x7c <__bad_interrupt>
  24:	0c 94 3e 00 	jmp	0x7c	; 0x7c <__bad_interrupt>
  28:	0c 94 3e 00 	jmp	0x7c	; 0x7c <__bad_interrupt>
  2c:	0c 94 3e 00 	jmp	0x7c	; 0x7c <__bad_interrupt>
  30:	0c 94 3e 00 	jmp	0x7c	; 0x7c <__bad_interrupt>
  34:	0c 94 3e 00 	jmp	0x7c	; 0x7c <__bad_interrupt>
  38:	0c 94 3e 00 	jmp	0x7c	; 0x7c <__bad_interrupt>
  3c:	0c 94 3e 00 	jmp	0x7c	; 0x7c <__bad_interrupt>
  40:	0c 94 3e 00 	jmp	0x7c	; 0x7c <__bad_interrupt>
  44:	0c 94 3e 00 	jmp	0x7c	; 0x7c <__bad_interrupt>
  48:	0c 94 3e 00 	jmp	0x7c	; 0x7c <__bad_interrupt>
  4c:	0c 94 3e 00 	jmp	0x7c	; 0x7c <__bad_interrupt>
  50:	0c 94 3e 00 	jmp	0x7c	; 0x7c <__bad_interrupt>
  54:	0c 94 3e 00 	jmp	0x7c	; 0x7c <__bad_interrupt>
  58:	0c 94 3e 00 	jmp	0x7c	; 0x7c <__bad_interrupt>
  5c:	0c 94 3e 00 	jmp	0x7c	; 0x7c <__bad_interrupt>
  60:	0c 94 3e 00 	jmp	0x7c	; 0x7c <__bad_interrupt>
  64:	0c 94 3e 00 	jmp	0x7c	; 0x7c <__bad_interrupt>

00000068 <__ctors_end>:
  68:	11 24       	eor	r1, r1
  6a:	1f be       	out	0x3f, r1	; 63
  6c:	cf ef       	ldi	r28, 0xFF	; 255
  6e:	d8 e0       	ldi	r29, 0x08	; 8
  70:	de bf       	out	0x3e, r29	; 62
  72:	cd bf       	out	0x3d, r28	; 61
  74:	0e 94 4b 00 	call	0x96	; 0x96 <main>
  78:	0c 94 4e 00 	jmp	0x9c	; 0x9c <_exit>

0000007c <__bad_interrupt>:
  7c:	0c 94 00 00 	jmp	0	; 0x0 <__vectors>

00000080 <_Z5setupv>:
		
    }
}

void setup(void){
	DDRD = (1<<PIND6);
  80:	80 e4       	ldi	r24, 0x40	; 64
  82:	8a b9       	out	0x0a, r24	; 10
	OCR0A = 128;	// 50% duty cycle
  84:	80 e8       	ldi	r24, 0x80	; 128
  86:	87 bd       	out	0x27, r24	; 39
	TCCR0A = (1<<COM0A1);	// non-inverted mode
  88:	84 bd       	out	0x24, r24	; 36
	TCCR0A |= ((1<<WGM01) | (1<<WGM00));	// Fast PWM mode
  8a:	84 b5       	in	r24, 0x24	; 36
  8c:	83 60       	ori	r24, 0x03	; 3
  8e:	84 bd       	out	0x24, r24	; 36
	TCCR0B = (1<<CS01);	// Prescaler = 8
  90:	82 e0       	ldi	r24, 0x02	; 2
  92:	85 bd       	out	0x25, r24	; 37
  94:	08 95       	ret

00000096 <main>:
#include <avr/io.h>

void setup(void);

int main(void){
    setup();
  96:	0e 94 40 00 	call	0x80	; 0x80 <_Z5setupv>
  9a:	ff cf       	rjmp	.-2      	; 0x9a <main+0x4>

0000009c <_exit>:
  9c:	f8 94       	cli

0000009e <__stop_program>:
  9e:	ff cf       	rjmp	.-2      	; 0x9e <__stop_program>
